S0100000626162795F6361722E73726563E1
S11300000C943A000C944C000C944C000C944C004E
S11300100C9485070C945C070C9433070C94E1064C
S11300200C940A070C94B8060C948F060C9466067C
S11300300C944C000C944C000C944C000C944C000C
S11300400C944C000C944C000C944C000C944C00FC
S11300500C944C00FF040C051905260533054005D6
S11300604D055A056705740581058E059B05C20576
S1130070A805B50511241FBECFE5D8E0DEBFCDBF6E
S113008020E0A0E6B0E001C01D92A037B207E1F77E
S11300900E94F8030C94C3070C9400007F928F9283
S11300A09F92AF92BF92CF92DF92EF92FF920F9303
S11300B01F93CF93DF93EC016B016894AA24A2F8F9
S11300C0DB011496AC9214971596AC9215970F2EEB
S11300D0F3E0FF2EF02DFC9282E011968C931197A1
S11300E01296FC9212971396FC9213970F2EF6E435
S11300F0BF2EF02D712C6B2D1696BC921697179669
S11301007C92179788E418968C93189719961C92EA
S113011003E012E023E033E044E054E070E090E0D8
S11301200E940D02D6011696ED91FC9117970F2EA1
S1130130F1E78F2EF2E09F2EF02D918280820F2E18
S1130140F2E3EF2EF02D0C9111961C91119712965B
S11301502C91129713963C91139714964C911497E3
S113016015965C91159716966C91169717967C9137
S1130170179718968C91189719969C910E9437029C
S1130180AC8285E08D83F8821982FA8281E08B83C8
S11301906B2DBE827F828AE48887198603E010E093
S11301A023E031E044E055E070E090E00E940D026D
S11301B0EE81FF8191828082088119812A813B81AD
S11301C04C815D816E817F81888599850E9437028B
S11301D0DF91CF911F910F91FF90EF90DF90CF901F
S11301E0BF90AF909F908F907F900895BF92CF92D1
S11301F0DF92EF92FF920F931F93CF93DF93CDB7CC
S1130200DEB72A970FB6F894DEBF0FBECDBF0983C1
S11302101A832B833C834D835E836F83788789871E
S11302209A870F2EF2E3EF2EF02D0E9437020E89EB
S11302301F89288D398D4A8D5B8D6C8D7D8D8E8DBA
S11302409F8D0E943702EE24E39409811A812B8149
S11302503C814D815E816F81788589859A850E9474
S113026077020E891F89288D398D4A8D5B8D6C8D9F
S11302707D8D8E8D9F8D0E9477022A960FB6F894FD
S1130280DEBF0FBECDBFDF91CF911F910F91FF90C5
S1130290EF90DF90CF90BF900895BF92CF92DF92FE
S11302A0EF92FF920F931F93CF93DF93CDB7DEB7F7
S11302B02A970FB6F894DEBF0FBECDBF09831A8309
S11302C02B833C834D835E836F83788789879A87EA
S11302D00F2EF4E6EF2EF02D0E943702EE24E39465
S11302E009811A812B813C814D815E816F817885E2
S11302F089859A850E947702E12C0E891F89288DB1
S1130300398D4A8D5B8D6C8D7D8D8E8D9F8D0E9478
S113031077022A960FB6F894DEBF0FBECDBFDF91E9
S1130320CF911F910F91FF90EF90DF90CF90BF90EE
S11303300895BF92CF92DF92EF92FF920F931F9393
S1130340CF93DF93CDB7DEB72A970FB6F894DEBF0D
S11303500FBECDBF09831A832B833C834D835E83F9
S11303606F83788789879A870F2EF4E6EF2EF02D16
S11303700E943702E12C09811A812B813C814D8135
S11303805E816F81788589859A850E947702EE2443
S1130390E3940E891F89288D398D4A8D5B8D6C8D70
S11303A07D8D8E8D9F8D0E9477022A960FB6F894CC
S11303B0DEBF0FBECDBFDF91CF911F910F91FF9094
S11303C0EF90DF90CF90BF900895EF920F931F931B
S11303D0CF93DF93CDB7DEB72A970FB6F894DEBF7D
S11303E00FBECDBFE12C0E9477020A891B892C899C
S11303F03D894E895F89688D798D8A8D9B8D0E9498
S113040077022A960FB6F894DEBF0FBECDBFDF91F8
S1130410CF911F910F91EF9008950F931F93CF9356
S1130420DF93CDB7DEB72A970FB6F894DEBF0FBEC1
S1130430CDBF09831A832B833C83842F41E0652F2E
S11304400E94BB0241E06A8189810E94BB0241E0B3
S11304506C818B810E94BB022A960FB6F894DEBF92
S11304600FBECDBFDF91CF911F910F910895EF92F1
S11304700F931F93CF93DF93CDB7DEB72A970FB6B1
S1130480F894DEBF0FBECDBF09831A832B833C8350
S11304904D835E836F83788789879A87E985FA8598
S11304A0AF81B8858D919C9181509048E89E9001D0
S11304B0E99E300D1124220F331F3695279536956A
S11304C0279536952795ABE7B4E10E94B407969536
S11304D08795918380832A960FB6F894DEBF0FBE6A
S11304E0CDBFDF91CF911F910F91EF900895EF92BF
S11304F00F931F93CF93DF93CDB7DEB72A970FB631
S1130500F894DEBF0FBECDBF09831A832B833C83CF
S113051081E0E81621F082E0E81661F016C041E0BF
S11305206A8189810E942B0340E06C818B810E9447
S11305302B0315C040E06A8189810E942B0341E0AE
S11305406C818B810E942B030AC040E06A818981FF
S11305500E942B0340E06C818B810E942B032A961E
S11305600FB6F894DEBF0FBECDBFDF91CF911F91C0
S11305700F91EF900895823019F118F4813039F019
S113058008958330B1F1843009F44CC008954423B4
S113059059F02AB381E090E002C0880F991F6A9550
S11305A0E2F7822B8ABB08952AB381E090E002C06F
S11305B0880F991F6A95E2F7809582238ABB089574
S11305C0442359F027B381E090E002C0880F991FBB
S11305D06A95E2F7822B87BB089527B381E090E008
S11305E002C0880F991F6A95E2F78095822387BB22
S11305F00895442359F024B381E090E002C0880FA9
S1130600991F6A95E2F7822B84BB089524B381E095
S113061090E002C0880F991F6A95E2F780958223C3
S113062084BB0895442359F021B381E090E002C0D3
S1130630880F991F6A95E2F7822B81BB089521B335
S113064081E090E002C0880F991F6A95E2F78095D7
S1130650822381BB0895823019F118F4813039F076
S113066008958330B1F1843009F44CC008954423D3
S113067059F02BB381E090E002C0880F991F6A956E
S1130680E2F7822B8BBB08952BB381E090E002C08C
S1130690880F991F6A95E2F7809582238BBB089592
S11306A0442359F028B381E090E002C0880F991FD9
S11306B06A95E2F7822B88BB089528B381E090E025
S11306C002C0880F991F6A95E2F78095822388BB40
S11306D00895442359F025B381E090E002C0880FC7
S11306E0991F6A95E2F7822B85BB089525B381E0B3
S11306F090E002C0880F991F6A95E2F780958223E3
S113070085BB0895442359F022B381E090E002C0F0
S1130710880F991F6A95E2F7822B82BB089522B352
S113072081E090E002C0880F991F6A95E2F78095F6
S1130730822382BB08958230E9F018F4813031F0CD
S113074055C0833059F18430E9F150C049B381E098
S113075090E09C01062E02C0220F331F0A94E2F798
S1130760842F90E08223932302C0959587956A9500
S1130770E2F7089546B381E090E09C01062E02C0A2
S1130780220F331F0A94E2F7842F90E082239323ED
S113079002C0959587956A95E2F7089543B381E081
S11307A090E09C01062E02C0220F331F0A94E2F748
S11307B0842F90E08223932302C0959587956A95B0
S11307C0E2F7089540B381E090E09C01062E02C058
S11307D0220F331F0A94E2F7842F90E0822393239D
S11307E002C0959587956A95E2F7089580E008958B
S11307F0CF93DF93CDB7DEB76C970FB6F894DEBF17
S11308000FBECDBF40E060E081E00E94BB0240E04B
S113081061E081E00E94BB02BE01655F7F4FCE01B3
S113082001960E944E0084E0888F85E08E8B8F8B2A
S11308308AE08D8B2AE035E045E054E0698D7A8DBD
S11308408B8D9C8D0E94E20460E081E00E949B03FA
S113085081112AC061E081E00E949B03813021F56F
S11308608DB79EB70A970FB6F8949EBF0FBE8DBF83
S1130870ADB7BEB711968AE0FE013B9601900D928A
S11308808A95E1F709811A812B813C814D815E8132
S11308906F81788589859A850E944D010FB6F894F9
S11308A0DEBF0FBECDBFD0CF60E081E00E949B03CE
S11308B0813049F561E00E949B03811124C08DB70A
S11308C09EB70A970FB6F8949EBF0FBE8DBFADB703
S11308D0BEB711968AE0FE013B9601900D928A956F
S11308E0E1F709811A812B813C814D815E816F8101
S11308F0788589859A850E9499010FB6F894DEBFA0
S11309000FBECDBFA1CF60E081E00E949B03813088
S113091049F561E00E949B03813021F58DB79EB7B4
S11309200A970FB6F8949EBF0FBE8DBFADB7BEB782
S113093011968AE0FE013B9601900D928A95E1F7AB
S113094009811A812B813C814D815E816F8178857B
S113095089859A850E94F6000FB6F894DEBF0FBE13
S1130960CDBF72CF60E081E00E949B0381116CCF08
S113097061E081E00E949B03811166CF8DB79EB731
S11309800A970FB6F8949EBF0FBE8DBFADB7BEB722
S113099011968AE0FE013B9601900D928A95E1F74B
S11309A009811A812B813C814D815E816F8178851B
S11309B089859A850E94E5010FB6F894DEBF0FBEC3
S11309C0CDBF42CFCF93DF93CDB7DEB728970FB615
S11309D0F894DEBF0FBECDBF29833A834B835C837B
S11309E06D837E838F839887822F90E08031910579
S11309F008F0C8C0FC01E65DFF4F0C94AE078FB54C
S1130A008E7F8FBD8FB58D7F8FBD8EB5877F8EBD59
S1130A108EB58F7E8EBDC2C08FB581608FBD8FB500
S1130A208D7F8FBD8EB5877F8EBD8EB58F7E8EBD3B
S1130A30B5C08FB58E7F8FBD8FB582608FBD8EB5EB
S1130A40877F8EBD8EB58F7E8EBDA8C08FB5816029
S1130A508FBD8FB582608FBD8EB5877F8EBD8EB5FD
S1130A608F7E8EBD9BC08FB58E7F8FBD8FB58D7FE2
S1130A708FBD8EB588608EBD8EB58F7E8EBD8EC0C7
S1130A808FB581608FBD8FB58D7F8FBD8EB588602A
S1130A908EBD8EB58F7E8EBD81C08FB58E7F8FBD8E
S1130AA08FB582608FBD8EB588608EBD8EB58F7E0A
S1130AB08EBD74C08FB581608FBD8FB582608FBDD0
S1130AC08EB588608EBD8EB58F7E8EBD67C08FB5A6
S1130AD08E7F8FBD8FB58D7F8FBD8EB5877F8EBD89
S1130AE08EB580618EBD5AC08FB581608FBD8FB5C4
S1130AF08D7F8FBD8EB5877F8EBD8EB580618EBD97
S1130B004DC08FB58E7F8FBD8FB582608FBD8EB582
S1130B10877F8EBD8EB580618EBD40C08FB58160EC
S1130B208FBD8FB582608FBD8EB5877F8EBD8EB52C
S1130B3080618EBD33C08FB58E7F8FBD8FB58D7FA5
S1130B408FBD8EB588608EBD8EB580618EBD26C08A
S1130B508FB58E7F8FBD8FB582608FBD8EB5886057
S1130B608EBD8EB580618EBD19C08FB581608FBD7D
S1130B708FB582608FBD8EB588608EBD8EB5806165
S1130B808EBD0CC08FB58E7F8FBD8FB58D7F8FBD11
S1130B908EB5877F8EBD8EB58F7E8EBD8A81823065
S1130BA0C9F028F4882341F0813069F021C08530F0
S1130BB0C0F0853079F01CC08FB58F7B8FBD8FB5A9
S1130BC08F778FBD1BC08FB580648FBD8FB58F7736
S1130BD08FBD14C08FB58F7B8FBD8FB580688FBDDF
S1130BE00DC08FB580648FBD8FB580688FBD06C082
S1130BF08FB58F7B8FBD8FB58F778FBD8B81823003
S1130C00C9F028F4882341F0813069F021C085308F
S1130C10C0F0853079F01CC08FB58F7E8FBD8FB545
S1130C208F7D8FBD1BC08FB580618FBD8FB58F7DCC
S1130C308FBD14C08FB58F7E8FBD8FB580628FBD81
S1130C400DC08FB580618FBD8FB580628FBD06C02A
S1130C508FB58F7E8FBD8FB58F7D8FBD8EB5887D0F
S1130C608EBD9EB58C81892B8EBD8D81882321F00C
S1130C7089B7846089BF03C089B78B7F89BF8E81A0
S1130C80882321F089B7806189BF03C089B78F7E2B
S1130C9089BF8F81882321F089B7886089BF03C009
S1130CA089B7877F89BF8885882321F089B78062C7
S1130CB089BF03C089B78F7D89BF28960FB6F89482
S1130CC0DEBF0FBECDBFDF91CF9108951F920F926B
S1130CD00FB60F9211242F933F934F935F936F930B
S1130CE07F938F939F93AF93BF93EF93FF93E09181
S1130CF06E00F0916F00309709F00995FF91EF9124
S1130D00BF91AF919F918F917F916F915F914F911F
S1130D103F912F910F900FBE0F901F9018951F9227
S1130D200F920FB60F9211242F933F934F935F931B
S1130D306F937F938F939F93AF93BF93EF93FF939F
S1130D40E0916C00F0916D00309709F00995FF91E6
S1130D50EF91BF91AF919F918F917F916F915F912F
S1130D604F913F912F910F900FBE0F901F901895A8
S1130D701F920F920FB60F9211242F933F934F930C
S1130D805F936F937F938F939F93AF93BF93EF93EF
S1130D90FF93E0916A00F0916B00309709F0099598
S1130DA0FF91EF91BF91AF919F918F917F916F913F
S1130DB05F914F913F912F910F900FBE0F901F9015
S1130DC018951F920F920FB60F9211242F933F93F1
S1130DD04F935F936F937F938F939F93AF93BF933F
S1130DE0EF93FF93E0916800F0916900309709F068
S1130DF00995FF91EF91BF91AF919F918F917F9151
S1130E006F915F914F913F912F910F900FBE0F9073
S1130E101F9018951F920F920FB60F9211242F93C3
S1130E203F934F935F936F937F938F939F93AF936E
S1130E30BF93EF93FF93E0916600F09167003097C2
S1130E4009F00995FF91EF91BF91AF919F918F9117
S1130E507F916F915F914F913F912F910F900FBEB2
S1130E600F901F9018951F920F920FB60F92112496
S1130E702F933F934F935F936F937F938F939F939E
S1130E80AF93BF93EF93FF93E0916400F0916500FB
S1130E90309709F00995FF91EF91BF91AF919F9120
S1130EA08F917F916F915F914F913F912F910F900F
S1130EB00FBE0F901F9018951F920F920FB60F92AE
S1130EC011242F933F934F935F936F937F938F934B
S1130ED09F93AF93BF93EF93FF93E0916200F091E0
S1130EE06300309709F00995FF91EF91BF91AF919D
S1130EF09F918F917F916F915F914F913F912F912E
S1130F000F900FBE0F901F9018951F920F920FB65F
S1130F100F9211242F933F934F935F936F937F937B
S1130F208F939F93AF93BF93EF93FF93E0916000F0
S1130F30F0916100309709F00995FF91EF91BF910D
S1130F40AF919F918F917F916F915F914F913F915D
S1130F502F910F900FBE0F901F901895EE0FFF1F4B
S1130F600590F491E02D0994A29FB001B39FC001B4
S1130F70A39F700D811D1124911DB29F700D811DC1
S10D0F801124911D0895F894FFCF89
S9030000FC
